{
  "_format": "hh-sol-artifact-1",
  "contractName": "MBNFT",
  "sourceName": "contracts/MBNFT.sol",
  "abi": [
    {
      "inputs": [],
      "stateMutability": "nonpayable",
      "type": "constructor"
    },
    {
      "anonymous": false,
      "inputs": [
        {
          "indexed": true,
          "internalType": "address",
          "name": "owner",
          "type": "address"
        },
        {
          "indexed": true,
          "internalType": "address",
          "name": "approved",
          "type": "address"
        },
        {
          "indexed": true,
          "internalType": "uint256",
          "name": "tokenId",
          "type": "uint256"
        }
      ],
      "name": "Approval",
      "type": "event"
    },
    {
      "anonymous": false,
      "inputs": [
        {
          "indexed": true,
          "internalType": "address",
          "name": "owner",
          "type": "address"
        },
        {
          "indexed": true,
          "internalType": "address",
          "name": "operator",
          "type": "address"
        },
        {
          "indexed": false,
          "internalType": "bool",
          "name": "approved",
          "type": "bool"
        }
      ],
      "name": "ApprovalForAll",
      "type": "event"
    },
    {
      "anonymous": false,
      "inputs": [
        {
          "indexed": true,
          "internalType": "address",
          "name": "from",
          "type": "address"
        },
        {
          "indexed": true,
          "internalType": "address",
          "name": "to",
          "type": "address"
        },
        {
          "indexed": true,
          "internalType": "uint256",
          "name": "tokenId",
          "type": "uint256"
        }
      ],
      "name": "Transfer",
      "type": "event"
    },
    {
      "inputs": [
        {
          "internalType": "address",
          "name": "to",
          "type": "address"
        },
        {
          "internalType": "uint256",
          "name": "tokenId",
          "type": "uint256"
        }
      ],
      "name": "approve",
      "outputs": [],
      "stateMutability": "nonpayable",
      "type": "function"
    },
    {
      "inputs": [
        {
          "internalType": "address",
          "name": "owner",
          "type": "address"
        }
      ],
      "name": "balanceOf",
      "outputs": [
        {
          "internalType": "uint256",
          "name": "",
          "type": "uint256"
        }
      ],
      "stateMutability": "view",
      "type": "function"
    },
    {
      "inputs": [
        {
          "internalType": "uint256",
          "name": "tokenId",
          "type": "uint256"
        }
      ],
      "name": "getApproved",
      "outputs": [
        {
          "internalType": "address",
          "name": "",
          "type": "address"
        }
      ],
      "stateMutability": "view",
      "type": "function"
    },
    {
      "inputs": [
        {
          "internalType": "address",
          "name": "owner",
          "type": "address"
        },
        {
          "internalType": "address",
          "name": "operator",
          "type": "address"
        }
      ],
      "name": "isApprovedForAll",
      "outputs": [
        {
          "internalType": "bool",
          "name": "",
          "type": "bool"
        }
      ],
      "stateMutability": "view",
      "type": "function"
    },
    {
      "inputs": [],
      "name": "name",
      "outputs": [
        {
          "internalType": "string",
          "name": "",
          "type": "string"
        }
      ],
      "stateMutability": "view",
      "type": "function"
    },
    {
      "inputs": [
        {
          "internalType": "uint256",
          "name": "tokenId",
          "type": "uint256"
        }
      ],
      "name": "ownerOf",
      "outputs": [
        {
          "internalType": "address",
          "name": "",
          "type": "address"
        }
      ],
      "stateMutability": "view",
      "type": "function"
    },
    {
      "inputs": [
        {
          "internalType": "address",
          "name": "to",
          "type": "address"
        },
        {
          "internalType": "string",
          "name": "uri",
          "type": "string"
        }
      ],
      "name": "safeMint",
      "outputs": [],
      "stateMutability": "nonpayable",
      "type": "function"
    },
    {
      "inputs": [
        {
          "internalType": "address",
          "name": "from",
          "type": "address"
        },
        {
          "internalType": "address",
          "name": "to",
          "type": "address"
        },
        {
          "internalType": "uint256",
          "name": "tokenId",
          "type": "uint256"
        }
      ],
      "name": "safeTransferFrom",
      "outputs": [],
      "stateMutability": "nonpayable",
      "type": "function"
    },
    {
      "inputs": [
        {
          "internalType": "address",
          "name": "from",
          "type": "address"
        },
        {
          "internalType": "address",
          "name": "to",
          "type": "address"
        },
        {
          "internalType": "uint256",
          "name": "tokenId",
          "type": "uint256"
        },
        {
          "internalType": "bytes",
          "name": "_data",
          "type": "bytes"
        }
      ],
      "name": "safeTransferFrom",
      "outputs": [],
      "stateMutability": "nonpayable",
      "type": "function"
    },
    {
      "inputs": [
        {
          "internalType": "address",
          "name": "operator",
          "type": "address"
        },
        {
          "internalType": "bool",
          "name": "approved",
          "type": "bool"
        }
      ],
      "name": "setApprovalForAll",
      "outputs": [],
      "stateMutability": "nonpayable",
      "type": "function"
    },
    {
      "inputs": [
        {
          "internalType": "bytes4",
          "name": "interfaceId",
          "type": "bytes4"
        }
      ],
      "name": "supportsInterface",
      "outputs": [
        {
          "internalType": "bool",
          "name": "",
          "type": "bool"
        }
      ],
      "stateMutability": "view",
      "type": "function"
    },
    {
      "inputs": [],
      "name": "symbol",
      "outputs": [
        {
          "internalType": "string",
          "name": "",
          "type": "string"
        }
      ],
      "stateMutability": "view",
      "type": "function"
    },
    {
      "inputs": [
        {
          "internalType": "uint256",
          "name": "index",
          "type": "uint256"
        }
      ],
      "name": "tokenByIndex",
      "outputs": [
        {
          "internalType": "uint256",
          "name": "",
          "type": "uint256"
        }
      ],
      "stateMutability": "view",
      "type": "function"
    },
    {
      "inputs": [
        {
          "internalType": "address",
          "name": "owner",
          "type": "address"
        },
        {
          "internalType": "uint256",
          "name": "index",
          "type": "uint256"
        }
      ],
      "name": "tokenOfOwnerByIndex",
      "outputs": [
        {
          "internalType": "uint256",
          "name": "",
          "type": "uint256"
        }
      ],
      "stateMutability": "view",
      "type": "function"
    },
    {
      "inputs": [
        {
          "internalType": "uint256",
          "name": "tokenId",
          "type": "uint256"
        }
      ],
      "name": "tokenURI",
      "outputs": [
        {
          "internalType": "string",
          "name": "",
          "type": "string"
        }
      ],
      "stateMutability": "view",
      "type": "function"
    },
    {
      "inputs": [],
      "name": "totalSupply",
      "outputs": [
        {
          "internalType": "uint256",
          "name": "",
          "type": "uint256"
        }
      ],
      "stateMutability": "view",
      "type": "function"
    },
    {
      "inputs": [
        {
          "internalType": "address",
          "name": "from",
          "type": "address"
        },
        {
          "internalType": "address",
          "name": "to",
          "type": "address"
        },
        {
          "internalType": "uint256",
          "name": "tokenId",
          "type": "uint256"
        }
      ],
      "name": "transferFrom",
      "outputs": [],
      "stateMutability": "nonpayable",
      "type": "function"
    }
  ],
  "bytecode": "0x6080604052612710600c553480156200001757600080fd5b506040518060400160405280600581526020017f4d424e46540000000000000000000000000000000000000000000000000000008152506040518060400160405280600581526020017f4d424e465400000000000000000000000000000000000000000000000000000081525081600090805190602001906200009c929190620000be565b508060019080519060200190620000b5929190620000be565b505050620001d3565b828054620000cc906200016e565b90600052602060002090601f016020900481019282620000f057600085556200013c565b82601f106200010b57805160ff19168380011785556200013c565b828001600101855582156200013c579182015b828111156200013b5782518255916020019190600101906200011e565b5b5090506200014b91906200014f565b5090565b5b808211156200016a57600081600090555060010162000150565b5090565b600060028204905060018216806200018757607f821691505b602082108114156200019e576200019d620001a4565b5b50919050565b7f4e487b7100000000000000000000000000000000000000000000000000000000600052602260045260246000fd5b6134f880620001e36000396000f3fe608060405234801561001057600080fd5b506004361061010b5760003560e01c80634f6ccce7116100a2578063a22cb46511610071578063a22cb465146102de578063b88d4fde146102fa578063c87b56dd14610316578063d204c45e14610346578063e985e9c5146103625761010b565b80634f6ccce7146102305780636352211e1461026057806370a082311461029057806395d89b41146102c05761010b565b806318160ddd116100de57806318160ddd146101aa57806323b872dd146101c85780632f745c59146101e457806342842e0e146102145761010b565b806301ffc9a71461011057806306fdde0314610140578063081812fc1461015e578063095ea7b31461018e575b600080fd5b61012a60048036038101906101259190612415565b610392565b6040516101379190612884565b60405180910390f35b6101486103a4565b604051610155919061289f565b60405180910390f35b61017860048036038101906101739190612467565b610436565b604051610185919061281d565b60405180910390f35b6101a860048036038101906101a391906123d9565b6104bb565b005b6101b26105d3565b6040516101bf9190612b21565b60405180910390f35b6101e260048036038101906101dd919061227f565b6105e0565b005b6101fe60048036038101906101f991906123d9565b610640565b60405161020b9190612b21565b60405180910390f35b61022e6004803603810190610229919061227f565b6106e5565b005b61024a60048036038101906102459190612467565b610705565b6040516102579190612b21565b60405180910390f35b61027a60048036038101906102759190612467565b61079c565b604051610287919061281d565b60405180910390f35b6102aa60048036038101906102a5919061221a565b61084e565b6040516102b79190612b21565b60405180910390f35b6102c8610906565b6040516102d5919061289f565b60405180910390f35b6102f860048036038101906102f39190612349565b610998565b005b610314600480360381019061030f91906122ce565b6109ae565b005b610330600480360381019061032b9190612467565b610a10565b60405161033d919061289f565b60405180910390f35b610360600480360381019061035b9190612385565b610a22565b005b61037c60048036038101906103779190612243565b610aa1565b6040516103899190612884565b60405180910390f35b600061039d82610b35565b9050919050565b6060600080546103b390612d77565b80601f01602080910402602001604051908101604052809291908181526020018280546103df90612d77565b801561042c5780601f106104015761010080835404028352916020019161042c565b820191906000526020600020905b81548152906001019060200180831161040f57829003601f168201915b5050505050905090565b600061044182610baf565b610480576040517f08c379a000000000000000000000000000000000000000000000000000000000815260040161047790612a81565b60405180910390fd5b6004600083815260200190815260200160002060009054906101000a900473ffffffffffffffffffffffffffffffffffffffff169050919050565b60006104c68261079c565b90508073ffffffffffffffffffffffffffffffffffffffff168373ffffffffffffffffffffffffffffffffffffffff161415610537576040517f08c379a000000000000000000000000000000000000000000000000000000000815260040161052e90612ac1565b60405180910390fd5b8073ffffffffffffffffffffffffffffffffffffffff16610556610c1b565b73ffffffffffffffffffffffffffffffffffffffff16148061058557506105848161057f610c1b565b610aa1565b5b6105c4576040517f08c379a00000000000000000000000000000000000000000000000000000000081526004016105bb906129a1565b60405180910390fd5b6105ce8383610c23565b505050565b6000600880549050905090565b6105f16105eb610c1b565b82610cdc565b610630576040517f08c379a000000000000000000000000000000000000000000000000000000000815260040161062790612ae1565b60405180910390fd5b61063b838383610dba565b505050565b600061064b8361084e565b821061068c576040517f08c379a0000000000000000000000000000000000000000000000000000000008152600401610683906128c1565b60405180910390fd5b600660008473ffffffffffffffffffffffffffffffffffffffff1673ffffffffffffffffffffffffffffffffffffffff168152602001908152602001600020600083815260200190815260200160002054905092915050565b610700838383604051806020016040528060008152506109ae565b505050565b600061070f6105d3565b8210610750576040517f08c379a000000000000000000000000000000000000000000000000000000000815260040161074790612b01565b60405180910390fd5b6008828154811061078a577f4e487b7100000000000000000000000000000000000000000000000000000000600052603260045260246000fd5b90600052602060002001549050919050565b6000806002600084815260200190815260200160002060009054906101000a900473ffffffffffffffffffffffffffffffffffffffff169050600073ffffffffffffffffffffffffffffffffffffffff168173ffffffffffffffffffffffffffffffffffffffff161415610845576040517f08c379a000000000000000000000000000000000000000000000000000000000815260040161083c906129e1565b60405180910390fd5b80915050919050565b60008073ffffffffffffffffffffffffffffffffffffffff168273ffffffffffffffffffffffffffffffffffffffff1614156108bf576040517f08c379a00000000000000000000000000000000000000000000000000000000081526004016108b6906129c1565b60405180910390fd5b600360008373ffffffffffffffffffffffffffffffffffffffff1673ffffffffffffffffffffffffffffffffffffffff168152602001908152602001600020549050919050565b60606001805461091590612d77565b80601f016020809104026020016040519081016040528092919081815260200182805461094190612d77565b801561098e5780601f106109635761010080835404028352916020019161098e565b820191906000526020600020905b81548152906001019060200180831161097157829003601f168201915b5050505050905090565b6109aa6109a3610c1b565b8383611021565b5050565b6109bf6109b9610c1b565b83610cdc565b6109fe576040517f08c379a00000000000000000000000000000000000000000000000000000000081526004016109f590612ae1565b60405180910390fd5b610a0a8484848461118e565b50505050565b6060610a1b826111ea565b9050919050565b600c54610a2f600b61133c565b1115610a70576040517f08c379a0000000000000000000000000000000000000000000000000000000008152600401610a6790612a21565b60405180910390fd5b6000610a7c600b61133c565b9050610a88600b61134a565b610a928382611360565b610a9c818361137e565b505050565b6000600560008473ffffffffffffffffffffffffffffffffffffffff1673ffffffffffffffffffffffffffffffffffffffff16815260200190815260200160002060008373ffffffffffffffffffffffffffffffffffffffff1673ffffffffffffffffffffffffffffffffffffffff16815260200190815260200160002060009054906101000a900460ff16905092915050565b60007f780e9d63000000000000000000000000000000000000000000000000000000007bffffffffffffffffffffffffffffffffffffffffffffffffffffffff1916827bffffffffffffffffffffffffffffffffffffffffffffffffffffffff19161480610ba85750610ba7826113f2565b5b9050919050565b60008073ffffffffffffffffffffffffffffffffffffffff166002600084815260200190815260200160002060009054906101000a900473ffffffffffffffffffffffffffffffffffffffff1673ffffffffffffffffffffffffffffffffffffffff1614159050919050565b600033905090565b816004600083815260200190815260200160002060006101000a81548173ffffffffffffffffffffffffffffffffffffffff021916908373ffffffffffffffffffffffffffffffffffffffff160217905550808273ffffffffffffffffffffffffffffffffffffffff16610c968361079c565b73ffffffffffffffffffffffffffffffffffffffff167f8c5be1e5ebec7d5bd14f71427d1e84f3dd0314c0f7b2291e5b200ac8c7c3b92560405160405180910390a45050565b6000610ce782610baf565b610d26576040517f08c379a0000000000000000000000000000000000000000000000000000000008152600401610d1d90612981565b60405180910390fd5b6000610d318361079c565b90508073ffffffffffffffffffffffffffffffffffffffff168473ffffffffffffffffffffffffffffffffffffffff161480610d735750610d728185610aa1565b5b80610db157508373ffffffffffffffffffffffffffffffffffffffff16610d9984610436565b73ffffffffffffffffffffffffffffffffffffffff16145b91505092915050565b8273ffffffffffffffffffffffffffffffffffffffff16610dda8261079c565b73ffffffffffffffffffffffffffffffffffffffff1614610e30576040517f08c379a0000000000000000000000000000000000000000000000000000000008152600401610e2790612901565b60405180910390fd5b600073ffffffffffffffffffffffffffffffffffffffff168273ffffffffffffffffffffffffffffffffffffffff161415610ea0576040517f08c379a0000000000000000000000000000000000000000000000000000000008152600401610e9790612941565b60405180910390fd5b610eab8383836114d4565b610eb6600082610c23565b6001600360008573ffffffffffffffffffffffffffffffffffffffff1673ffffffffffffffffffffffffffffffffffffffff1681526020019081526020016000206000828254610f069190612c8d565b925050819055506001600360008473ffffffffffffffffffffffffffffffffffffffff1673ffffffffffffffffffffffffffffffffffffffff1681526020019081526020016000206000828254610f5d9190612c06565b92505081905550816002600083815260200190815260200160002060006101000a81548173ffffffffffffffffffffffffffffffffffffffff021916908373ffffffffffffffffffffffffffffffffffffffff160217905550808273ffffffffffffffffffffffffffffffffffffffff168473ffffffffffffffffffffffffffffffffffffffff167fddf252ad1be2c89b69c2b068fc378daa952ba7f163c4a11628f55a4df523b3ef60405160405180910390a461101c8383836114e4565b505050565b8173ffffffffffffffffffffffffffffffffffffffff168373ffffffffffffffffffffffffffffffffffffffff161415611090576040517f08c379a000000000000000000000000000000000000000000000000000000000815260040161108790612961565b60405180910390fd5b80600560008573ffffffffffffffffffffffffffffffffffffffff1673ffffffffffffffffffffffffffffffffffffffff16815260200190815260200160002060008473ffffffffffffffffffffffffffffffffffffffff1673ffffffffffffffffffffffffffffffffffffffff16815260200190815260200160002060006101000a81548160ff0219169083151502179055508173ffffffffffffffffffffffffffffffffffffffff168373ffffffffffffffffffffffffffffffffffffffff167f17307eab39ab6107e8899845ad3d59bd9653f200f220920489ca2b5937696c31836040516111819190612884565b60405180910390a3505050565b611199848484610dba565b6111a5848484846114e9565b6111e4576040517f08c379a00000000000000000000000000000000000000000000000000000000081526004016111db906128e1565b60405180910390fd5b50505050565b60606111f582610baf565b611234576040517f08c379a000000000000000000000000000000000000000000000000000000000815260040161122b90612a61565b60405180910390fd5b6000600a6000848152602001908152602001600020805461125490612d77565b80601f016020809104026020016040519081016040528092919081815260200182805461128090612d77565b80156112cd5780601f106112a2576101008083540402835291602001916112cd565b820191906000526020600020905b8154815290600101906020018083116112b057829003601f168201915b5050505050905060006112de611680565b90506000815114156112f4578192505050611337565b6000825111156113295780826040516020016113119291906127f9565b60405160208183030381529060405292505050611337565b61133284611697565b925050505b919050565b600081600001549050919050565b6001816000016000828254019250508190555050565b61137a82826040518060200160405280600081525061173e565b5050565b61138782610baf565b6113c6576040517f08c379a00000000000000000000000000000000000000000000000000000000081526004016113bd90612a01565b60405180910390fd5b80600a600084815260200190815260200160002090805190602001906113ed92919061203e565b505050565b60007f80ac58cd000000000000000000000000000000000000000000000000000000007bffffffffffffffffffffffffffffffffffffffffffffffffffffffff1916827bffffffffffffffffffffffffffffffffffffffffffffffffffffffff191614806114bd57507f5b5e139f000000000000000000000000000000000000000000000000000000007bffffffffffffffffffffffffffffffffffffffffffffffffffffffff1916827bffffffffffffffffffffffffffffffffffffffffffffffffffffffff1916145b806114cd57506114cc82611799565b5b9050919050565b6114df838383611803565b505050565b505050565b600061150a8473ffffffffffffffffffffffffffffffffffffffff16611917565b15611673578373ffffffffffffffffffffffffffffffffffffffff1663150b7a02611533610c1b565b8786866040518563ffffffff1660e01b81526004016115559493929190612838565b602060405180830381600087803b15801561156f57600080fd5b505af19250505080156115a057506040513d601f19601f8201168201806040525081019061159d919061243e565b60015b611623573d80600081146115d0576040519150601f19603f3d011682016040523d82523d6000602084013e6115d5565b606091505b5060008151141561161b576040517f08c379a0000000000000000000000000000000000000000000000000000000008152600401611612906128e1565b60405180910390fd5b805181602001fd5b63150b7a0260e01b7bffffffffffffffffffffffffffffffffffffffffffffffffffffffff1916817bffffffffffffffffffffffffffffffffffffffffffffffffffffffff191614915050611678565b600190505b949350505050565b606060405180602001604052806000815250905090565b60606116a282610baf565b6116e1576040517f08c379a00000000000000000000000000000000000000000000000000000000081526004016116d890612aa1565b60405180910390fd5b60006116eb611680565b9050600081511161170b5760405180602001604052806000815250611736565b806117158461193a565b6040516020016117269291906127f9565b6040516020818303038152906040525b915050919050565b6117488383611ae7565b61175560008484846114e9565b611794576040517f08c379a000000000000000000000000000000000000000000000000000000000815260040161178b906128e1565b60405180910390fd5b505050565b60007f01ffc9a7000000000000000000000000000000000000000000000000000000007bffffffffffffffffffffffffffffffffffffffffffffffffffffffff1916827bffffffffffffffffffffffffffffffffffffffffffffffffffffffff1916149050919050565b61180e838383611cc1565b600073ffffffffffffffffffffffffffffffffffffffff168373ffffffffffffffffffffffffffffffffffffffff1614156118515761184c81611cc6565b611890565b8173ffffffffffffffffffffffffffffffffffffffff168373ffffffffffffffffffffffffffffffffffffffff161461188f5761188e8382611d0f565b5b5b600073ffffffffffffffffffffffffffffffffffffffff168273ffffffffffffffffffffffffffffffffffffffff1614156118d3576118ce81611e7c565b611912565b8273ffffffffffffffffffffffffffffffffffffffff168273ffffffffffffffffffffffffffffffffffffffff1614611911576119108282611fbf565b5b5b505050565b6000808273ffffffffffffffffffffffffffffffffffffffff163b119050919050565b60606000821415611982576040518060400160405280600181526020017f30000000000000000000000000000000000000000000000000000000000000008152509050611ae2565b600082905060005b600082146119b457808061199d90612dda565b915050600a826119ad9190612c5c565b915061198a565b60008167ffffffffffffffff8111156119f6577f4e487b7100000000000000000000000000000000000000000000000000000000600052604160045260246000fd5b6040519080825280601f01601f191660200182016040528015611a285781602001600182028036833780820191505090505b5090505b60008514611adb57600182611a419190612c8d565b9150600a85611a509190612e23565b6030611a5c9190612c06565b60f81b818381518110611a98577f4e487b7100000000000000000000000000000000000000000000000000000000600052603260045260246000fd5b60200101907effffffffffffffffffffffffffffffffffffffffffffffffffffffffffffff1916908160001a905350600a85611ad49190612c5c565b9450611a2c565b8093505050505b919050565b600073ffffffffffffffffffffffffffffffffffffffff168273ffffffffffffffffffffffffffffffffffffffff161415611b57576040517f08c379a0000000000000000000000000000000000000000000000000000000008152600401611b4e90612a41565b60405180910390fd5b611b6081610baf565b15611ba0576040517f08c379a0000000000000000000000000000000000000000000000000000000008152600401611b9790612921565b60405180910390fd5b611bac600083836114d4565b6001600360008473ffffffffffffffffffffffffffffffffffffffff1673ffffffffffffffffffffffffffffffffffffffff1681526020019081526020016000206000828254611bfc9190612c06565b92505081905550816002600083815260200190815260200160002060006101000a81548173ffffffffffffffffffffffffffffffffffffffff021916908373ffffffffffffffffffffffffffffffffffffffff160217905550808273ffffffffffffffffffffffffffffffffffffffff16600073ffffffffffffffffffffffffffffffffffffffff167fddf252ad1be2c89b69c2b068fc378daa952ba7f163c4a11628f55a4df523b3ef60405160405180910390a4611cbd600083836114e4565b5050565b505050565b6008805490506009600083815260200190815260200160002081905550600881908060018154018082558091505060019003906000526020600020016000909190919091505550565b60006001611d1c8461084e565b611d269190612c8d565b9050600060076000848152602001908152602001600020549050818114611e0b576000600660008673ffffffffffffffffffffffffffffffffffffffff1673ffffffffffffffffffffffffffffffffffffffff168152602001908152602001600020600084815260200190815260200160002054905080600660008773ffffffffffffffffffffffffffffffffffffffff1673ffffffffffffffffffffffffffffffffffffffff168152602001908152602001600020600084815260200190815260200160002081905550816007600083815260200190815260200160002081905550505b6007600084815260200190815260200160002060009055600660008573ffffffffffffffffffffffffffffffffffffffff1673ffffffffffffffffffffffffffffffffffffffff16815260200190815260200160002060008381526020019081526020016000206000905550505050565b60006001600880549050611e909190612c8d565b9050600060096000848152602001908152602001600020549050600060088381548110611ee6577f4e487b7100000000000000000000000000000000000000000000000000000000600052603260045260246000fd5b906000526020600020015490508060088381548110611f2e577f4e487b7100000000000000000000000000000000000000000000000000000000600052603260045260246000fd5b906000526020600020018190555081600960008381526020019081526020016000208190555060096000858152602001908152602001600020600090556008805480611fa3577f4e487b7100000000000000000000000000000000000000000000000000000000600052603160045260246000fd5b6001900381819060005260206000200160009055905550505050565b6000611fca8361084e565b905081600660008573ffffffffffffffffffffffffffffffffffffffff1673ffffffffffffffffffffffffffffffffffffffff168152602001908152602001600020600083815260200190815260200160002081905550806007600084815260200190815260200160002081905550505050565b82805461204a90612d77565b90600052602060002090601f01602090048101928261206c57600085556120b3565b82601f1061208557805160ff19168380011785556120b3565b828001600101855582156120b3579182015b828111156120b2578251825591602001919060010190612097565b5b5090506120c091906120c4565b5090565b5b808211156120dd5760008160009055506001016120c5565b5090565b60006120f46120ef84612b61565b612b3c565b90508281526020810184848401111561210c57600080fd5b612117848285612d35565b509392505050565b600061213261212d84612b92565b612b3c565b90508281526020810184848401111561214a57600080fd5b612155848285612d35565b509392505050565b60008135905061216c81613466565b92915050565b6000813590506121818161347d565b92915050565b60008135905061219681613494565b92915050565b6000815190506121ab81613494565b92915050565b600082601f8301126121c257600080fd5b81356121d28482602086016120e1565b91505092915050565b600082601f8301126121ec57600080fd5b81356121fc84826020860161211f565b91505092915050565b600081359050612214816134ab565b92915050565b60006020828403121561222c57600080fd5b600061223a8482850161215d565b91505092915050565b6000806040838503121561225657600080fd5b60006122648582860161215d565b92505060206122758582860161215d565b9150509250929050565b60008060006060848603121561229457600080fd5b60006122a28682870161215d565b93505060206122b38682870161215d565b92505060406122c486828701612205565b9150509250925092565b600080600080608085870312156122e457600080fd5b60006122f28782880161215d565b94505060206123038782880161215d565b935050604061231487828801612205565b925050606085013567ffffffffffffffff81111561233157600080fd5b61233d878288016121b1565b91505092959194509250565b6000806040838503121561235c57600080fd5b600061236a8582860161215d565b925050602061237b85828601612172565b9150509250929050565b6000806040838503121561239857600080fd5b60006123a68582860161215d565b925050602083013567ffffffffffffffff8111156123c357600080fd5b6123cf858286016121db565b9150509250929050565b600080604083850312156123ec57600080fd5b60006123fa8582860161215d565b925050602061240b85828601612205565b9150509250929050565b60006020828403121561242757600080fd5b600061243584828501612187565b91505092915050565b60006020828403121561245057600080fd5b600061245e8482850161219c565b91505092915050565b60006020828403121561247957600080fd5b600061248784828501612205565b91505092915050565b61249981612cc1565b82525050565b6124a881612cd3565b82525050565b60006124b982612bc3565b6124c38185612bd9565b93506124d3818560208601612d44565b6124dc81612f10565b840191505092915050565b60006124f282612bce565b6124fc8185612bea565b935061250c818560208601612d44565b61251581612f10565b840191505092915050565b600061252b82612bce565b6125358185612bfb565b9350612545818560208601612d44565b80840191505092915050565b600061255e602b83612bea565b915061256982612f21565b604082019050919050565b6000612581603283612bea565b915061258c82612f70565b604082019050919050565b60006125a4602583612bea565b91506125af82612fbf565b604082019050919050565b60006125c7601c83612bea565b91506125d28261300e565b602082019050919050565b60006125ea602483612bea565b91506125f582613037565b604082019050919050565b600061260d601983612bea565b915061261882613086565b602082019050919050565b6000612630602c83612bea565b915061263b826130af565b604082019050919050565b6000612653603883612bea565b915061265e826130fe565b604082019050919050565b6000612676602a83612bea565b91506126818261314d565b604082019050919050565b6000612699602983612bea565b91506126a48261319c565b604082019050919050565b60006126bc602e83612bea565b91506126c7826131eb565b604082019050919050565b60006126df601b83612bea565b91506126ea8261323a565b602082019050919050565b6000612702602083612bea565b915061270d82613263565b602082019050919050565b6000612725603183612bea565b91506127308261328c565b604082019050919050565b6000612748602c83612bea565b9150612753826132db565b604082019050919050565b600061276b602f83612bea565b91506127768261332a565b604082019050919050565b600061278e602183612bea565b915061279982613379565b604082019050919050565b60006127b1603183612bea565b91506127bc826133c8565b604082019050919050565b60006127d4602c83612bea565b91506127df82613417565b604082019050919050565b6127f381612d2b565b82525050565b60006128058285612520565b91506128118284612520565b91508190509392505050565b60006020820190506128326000830184612490565b92915050565b600060808201905061284d6000830187612490565b61285a6020830186612490565b61286760408301856127ea565b818103606083015261287981846124ae565b905095945050505050565b6000602082019050612899600083018461249f565b92915050565b600060208201905081810360008301526128b981846124e7565b905092915050565b600060208201905081810360008301526128da81612551565b9050919050565b600060208201905081810360008301526128fa81612574565b9050919050565b6000602082019050818103600083015261291a81612597565b9050919050565b6000602082019050818103600083015261293a816125ba565b9050919050565b6000602082019050818103600083015261295a816125dd565b9050919050565b6000602082019050818103600083015261297a81612600565b9050919050565b6000602082019050818103600083015261299a81612623565b9050919050565b600060208201905081810360008301526129ba81612646565b9050919050565b600060208201905081810360008301526129da81612669565b9050919050565b600060208201905081810360008301526129fa8161268c565b9050919050565b60006020820190508181036000830152612a1a816126af565b9050919050565b60006020820190508181036000830152612a3a816126d2565b9050919050565b60006020820190508181036000830152612a5a816126f5565b9050919050565b60006020820190508181036000830152612a7a81612718565b9050919050565b60006020820190508181036000830152612a9a8161273b565b9050919050565b60006020820190508181036000830152612aba8161275e565b9050919050565b60006020820190508181036000830152612ada81612781565b9050919050565b60006020820190508181036000830152612afa816127a4565b9050919050565b60006020820190508181036000830152612b1a816127c7565b9050919050565b6000602082019050612b3660008301846127ea565b92915050565b6000612b46612b57565b9050612b528282612da9565b919050565b6000604051905090565b600067ffffffffffffffff821115612b7c57612b7b612ee1565b5b612b8582612f10565b9050602081019050919050565b600067ffffffffffffffff821115612bad57612bac612ee1565b5b612bb682612f10565b9050602081019050919050565b600081519050919050565b600081519050919050565b600082825260208201905092915050565b600082825260208201905092915050565b600081905092915050565b6000612c1182612d2b565b9150612c1c83612d2b565b9250827fffffffffffffffffffffffffffffffffffffffffffffffffffffffffffffffff03821115612c5157612c50612e54565b5b828201905092915050565b6000612c6782612d2b565b9150612c7283612d2b565b925082612c8257612c81612e83565b5b828204905092915050565b6000612c9882612d2b565b9150612ca383612d2b565b925082821015612cb657612cb5612e54565b5b828203905092915050565b6000612ccc82612d0b565b9050919050565b60008115159050919050565b60007fffffffff0000000000000000000000000000000000000000000000000000000082169050919050565b600073ffffffffffffffffffffffffffffffffffffffff82169050919050565b6000819050919050565b82818337600083830152505050565b60005b83811015612d62578082015181840152602081019050612d47565b83811115612d71576000848401525b50505050565b60006002820490506001821680612d8f57607f821691505b60208210811415612da357612da2612eb2565b5b50919050565b612db282612f10565b810181811067ffffffffffffffff82111715612dd157612dd0612ee1565b5b80604052505050565b6000612de582612d2b565b91507fffffffffffffffffffffffffffffffffffffffffffffffffffffffffffffffff821415612e1857612e17612e54565b5b600182019050919050565b6000612e2e82612d2b565b9150612e3983612d2b565b925082612e4957612e48612e83565b5b828206905092915050565b7f4e487b7100000000000000000000000000000000000000000000000000000000600052601160045260246000fd5b7f4e487b7100000000000000000000000000000000000000000000000000000000600052601260045260246000fd5b7f4e487b7100000000000000000000000000000000000000000000000000000000600052602260045260246000fd5b7f4e487b7100000000000000000000000000000000000000000000000000000000600052604160045260246000fd5b6000601f19601f8301169050919050565b7f455243373231456e756d657261626c653a206f776e657220696e646578206f7560008201527f74206f6620626f756e6473000000000000000000000000000000000000000000602082015250565b7f4552433732313a207472616e7366657220746f206e6f6e20455243373231526560008201527f63656976657220696d706c656d656e7465720000000000000000000000000000602082015250565b7f4552433732313a207472616e736665722066726f6d20696e636f72726563742060008201527f6f776e6572000000000000000000000000000000000000000000000000000000602082015250565b7f4552433732313a20746f6b656e20616c7265616479206d696e74656400000000600082015250565b7f4552433732313a207472616e7366657220746f20746865207a65726f2061646460008201527f7265737300000000000000000000000000000000000000000000000000000000602082015250565b7f4552433732313a20617070726f766520746f2063616c6c657200000000000000600082015250565b7f4552433732313a206f70657261746f7220717565727920666f72206e6f6e657860008201527f697374656e7420746f6b656e0000000000000000000000000000000000000000602082015250565b7f4552433732313a20617070726f76652063616c6c6572206973206e6f74206f7760008201527f6e6572206e6f7220617070726f76656420666f7220616c6c0000000000000000602082015250565b7f4552433732313a2062616c616e636520717565727920666f7220746865207a6560008201527f726f206164647265737300000000000000000000000000000000000000000000602082015250565b7f4552433732313a206f776e657220717565727920666f72206e6f6e657869737460008201527f656e7420746f6b656e0000000000000000000000000000000000000000000000602082015250565b7f45524337323155524953746f726167653a2055524920736574206f66206e6f6e60008201527f6578697374656e7420746f6b656e000000000000000000000000000000000000602082015250565b7f4d617820537570706c7920686173206265656e20726561636865640000000000600082015250565b7f4552433732313a206d696e7420746f20746865207a65726f2061646472657373600082015250565b7f45524337323155524953746f726167653a2055524920717565727920666f722060008201527f6e6f6e6578697374656e7420746f6b656e000000000000000000000000000000602082015250565b7f4552433732313a20617070726f76656420717565727920666f72206e6f6e657860008201527f697374656e7420746f6b656e0000000000000000000000000000000000000000602082015250565b7f4552433732314d657461646174613a2055524920717565727920666f72206e6f60008201527f6e6578697374656e7420746f6b656e0000000000000000000000000000000000602082015250565b7f4552433732313a20617070726f76616c20746f2063757272656e74206f776e6560008201527f7200000000000000000000000000000000000000000000000000000000000000602082015250565b7f4552433732313a207472616e736665722063616c6c6572206973206e6f74206f60008201527f776e6572206e6f7220617070726f766564000000000000000000000000000000602082015250565b7f455243373231456e756d657261626c653a20676c6f62616c20696e646578206f60008201527f7574206f6620626f756e64730000000000000000000000000000000000000000602082015250565b61346f81612cc1565b811461347a57600080fd5b50565b61348681612cd3565b811461349157600080fd5b50565b61349d81612cdf565b81146134a857600080fd5b50565b6134b481612d2b565b81146134bf57600080fd5b5056fea2646970667358221220f4bbbd985afe50898df54b0375eb475685851962bccedfdcb9f61ef0ed7e563464736f6c63430008040033",
  "linkReferences": {},
  "deployedLinkReferences": {}
}